{
  "abi": [
    {
      "inputs": [
        {
          "internalType": "address",
          "name": "_dappAddress",
          "type": "address"
        }
      ],
      "stateMutability": "nonpayable",
      "type": "constructor"
    },
    {
      "anonymous": false,
      "inputs": [
        {
          "indexed": true,
          "internalType": "address",
          "name": "owner",
          "type": "address"
        },
        {
          "indexed": true,
          "internalType": "address",
          "name": "approved",
          "type": "address"
        },
        {
          "indexed": true,
          "internalType": "uint256",
          "name": "tokenId",
          "type": "uint256"
        }
      ],
      "name": "Approval",
      "type": "event"
    },
    {
      "anonymous": false,
      "inputs": [
        {
          "indexed": true,
          "internalType": "address",
          "name": "owner",
          "type": "address"
        },
        {
          "indexed": true,
          "internalType": "address",
          "name": "operator",
          "type": "address"
        },
        {
          "indexed": false,
          "internalType": "bool",
          "name": "approved",
          "type": "bool"
        }
      ],
      "name": "ApprovalForAll",
      "type": "event"
    },
    {
      "anonymous": false,
      "inputs": [
        {
          "indexed": false,
          "internalType": "uint256",
          "name": "_fromTokenId",
          "type": "uint256"
        },
        {
          "indexed": false,
          "internalType": "uint256",
          "name": "_toTokenId",
          "type": "uint256"
        }
      ],
      "name": "BatchMetadataUpdate",
      "type": "event"
    },
    {
      "anonymous": false,
      "inputs": [
        {
          "indexed": false,
          "internalType": "uint256",
          "name": "_tokenId",
          "type": "uint256"
        }
      ],
      "name": "MetadataUpdate",
      "type": "event"
    },
    {
      "anonymous": false,
      "inputs": [
        {
          "indexed": true,
          "internalType": "address",
          "name": "from",
          "type": "address"
        },
        {
          "indexed": true,
          "internalType": "address",
          "name": "to",
          "type": "address"
        },
        {
          "indexed": true,
          "internalType": "uint256",
          "name": "tokenId",
          "type": "uint256"
        }
      ],
      "name": "Transfer",
      "type": "event"
    },
    {
      "inputs": [
        {
          "internalType": "address",
          "name": "to",
          "type": "address"
        },
        {
          "internalType": "uint256",
          "name": "tokenId",
          "type": "uint256"
        }
      ],
      "name": "approve",
      "outputs": [],
      "stateMutability": "nonpayable",
      "type": "function"
    },
    {
      "inputs": [
        {
          "internalType": "address",
          "name": "owner",
          "type": "address"
        }
      ],
      "name": "balanceOf",
      "outputs": [
        {
          "internalType": "uint256",
          "name": "",
          "type": "uint256"
        }
      ],
      "stateMutability": "view",
      "type": "function"
    },
    {
      "inputs": [
        {
          "internalType": "bytes",
          "name": "_payload",
          "type": "bytes"
        },
        {
          "components": [
            {
              "components": [
                {
                  "internalType": "uint64",
                  "name": "inputIndexWithinEpoch",
                  "type": "uint64"
                },
                {
                  "internalType": "uint64",
                  "name": "outputIndexWithinInput",
                  "type": "uint64"
                },
                {
                  "internalType": "bytes32",
                  "name": "outputHashesRootHash",
                  "type": "bytes32"
                },
                {
                  "internalType": "bytes32",
                  "name": "vouchersEpochRootHash",
                  "type": "bytes32"
                },
                {
                  "internalType": "bytes32",
                  "name": "noticesEpochRootHash",
                  "type": "bytes32"
                },
                {
                  "internalType": "bytes32",
                  "name": "machineStateHash",
                  "type": "bytes32"
                },
                {
                  "internalType": "bytes32[]",
                  "name": "outputHashInOutputHashesSiblings",
                  "type": "bytes32[]"
                },
                {
                  "internalType": "bytes32[]",
                  "name": "outputHashesInEpochSiblings",
                  "type": "bytes32[]"
                }
              ],
              "internalType": "struct OutputValidityProof",
              "name": "validity",
              "type": "tuple"
            },
            {
              "internalType": "bytes",
              "name": "context",
              "type": "bytes"
            }
          ],
          "internalType": "struct Proof",
          "name": "_v",
          "type": "tuple"
        }
      ],
      "name": "ckeckMinted",
      "outputs": [
        {
          "internalType": "bool",
          "name": "",
          "type": "bool"
        }
      ],
      "stateMutability": "view",
      "type": "function"
    },
    {
      "inputs": [],
      "name": "dappAddress",
      "outputs": [
        {
          "internalType": "address",
          "name": "",
          "type": "address"
        }
      ],
      "stateMutability": "view",
      "type": "function"
    },
    {
      "inputs": [
        {
          "internalType": "bytes32",
          "name": "",
          "type": "bytes32"
        }
      ],
      "name": "gamelogOwner",
      "outputs": [
        {
          "internalType": "address",
          "name": "",
          "type": "address"
        }
      ],
      "stateMutability": "view",
      "type": "function"
    },
    {
      "inputs": [
        {
          "internalType": "uint256",
          "name": "tokenId",
          "type": "uint256"
        }
      ],
      "name": "getApproved",
      "outputs": [
        {
          "internalType": "address",
          "name": "",
          "type": "address"
        }
      ],
      "stateMutability": "view",
      "type": "function"
    },
    {
      "inputs": [
        {
          "internalType": "address",
          "name": "owner",
          "type": "address"
        },
        {
          "internalType": "address",
          "name": "operator",
          "type": "address"
        }
      ],
      "name": "isApprovedForAll",
      "outputs": [
        {
          "internalType": "bool",
          "name": "",
          "type": "bool"
        }
      ],
      "stateMutability": "view",
      "type": "function"
    },
    {
      "inputs": [
        {
          "internalType": "bytes",
          "name": "_payload",
          "type": "bytes"
        },
        {
          "components": [
            {
              "components": [
                {
                  "internalType": "uint64",
                  "name": "inputIndexWithinEpoch",
                  "type": "uint64"
                },
                {
                  "internalType": "uint64",
                  "name": "outputIndexWithinInput",
                  "type": "uint64"
                },
                {
                  "internalType": "bytes32",
                  "name": "outputHashesRootHash",
                  "type": "bytes32"
                },
                {
                  "internalType": "bytes32",
                  "name": "vouchersEpochRootHash",
                  "type": "bytes32"
                },
                {
                  "internalType": "bytes32",
                  "name": "noticesEpochRootHash",
                  "type": "bytes32"
                },
                {
                  "internalType": "bytes32",
                  "name": "machineStateHash",
                  "type": "bytes32"
                },
                {
                  "internalType": "bytes32[]",
                  "name": "outputHashInOutputHashesSiblings",
                  "type": "bytes32[]"
                },
                {
                  "internalType": "bytes32[]",
                  "name": "outputHashesInEpochSiblings",
                  "type": "bytes32[]"
                }
              ],
              "internalType": "struct OutputValidityProof",
              "name": "validity",
              "type": "tuple"
            },
            {
              "internalType": "bytes",
              "name": "context",
              "type": "bytes"
            }
          ],
          "internalType": "struct Proof",
          "name": "_v",
          "type": "tuple"
        }
      ],
      "name": "mint",
      "outputs": [
        {
          "internalType": "uint256",
          "name": "",
          "type": "uint256"
        }
      ],
      "stateMutability": "nonpayable",
      "type": "function"
    },
    {
      "inputs": [],
      "name": "name",
      "outputs": [
        {
          "internalType": "string",
          "name": "",
          "type": "string"
        }
      ],
      "stateMutability": "view",
      "type": "function"
    },
    {
      "inputs": [],
      "name": "operator",
      "outputs": [
        {
          "internalType": "address",
          "name": "",
          "type": "address"
        }
      ],
      "stateMutability": "view",
      "type": "function"
    },
    {
      "inputs": [
        {
          "internalType": "uint256",
          "name": "tokenId",
          "type": "uint256"
        }
      ],
      "name": "ownerOf",
      "outputs": [
        {
          "internalType": "address",
          "name": "",
          "type": "address"
        }
      ],
      "stateMutability": "view",
      "type": "function"
    },
    {
      "inputs": [
        {
          "internalType": "address",
          "name": "from",
          "type": "address"
        },
        {
          "internalType": "address",
          "name": "to",
          "type": "address"
        },
        {
          "internalType": "uint256",
          "name": "tokenId",
          "type": "uint256"
        }
      ],
      "name": "safeTransferFrom",
      "outputs": [],
      "stateMutability": "nonpayable",
      "type": "function"
    },
    {
      "inputs": [
        {
          "internalType": "address",
          "name": "from",
          "type": "address"
        },
        {
          "internalType": "address",
          "name": "to",
          "type": "address"
        },
        {
          "internalType": "uint256",
          "name": "tokenId",
          "type": "uint256"
        },
        {
          "internalType": "bytes",
          "name": "data",
          "type": "bytes"
        }
      ],
      "name": "safeTransferFrom",
      "outputs": [],
      "stateMutability": "nonpayable",
      "type": "function"
    },
    {
      "inputs": [
        {
          "internalType": "address",
          "name": "operator",
          "type": "address"
        },
        {
          "internalType": "bool",
          "name": "approved",
          "type": "bool"
        }
      ],
      "name": "setApprovalForAll",
      "outputs": [],
      "stateMutability": "nonpayable",
      "type": "function"
    },
    {
      "inputs": [
        {
          "internalType": "bytes32",
          "name": "gameplayHash",
          "type": "bytes32"
        },
        {
          "internalType": "bytes32",
          "name": "_r",
          "type": "bytes32"
        },
        {
          "internalType": "bytes32",
          "name": "_s",
          "type": "bytes32"
        },
        {
          "internalType": "uint8",
          "name": "_v",
          "type": "uint8"
        }
      ],
      "name": "setGameplayOwner",
      "outputs": [],
      "stateMutability": "nonpayable",
      "type": "function"
    },
    {
      "inputs": [
        {
          "internalType": "address",
          "name": "newOperator",
          "type": "address"
        }
      ],
      "name": "setOperator",
      "outputs": [],
      "stateMutability": "nonpayable",
      "type": "function"
    },
    {
      "inputs": [
        {
          "internalType": "bytes4",
          "name": "interfaceId",
          "type": "bytes4"
        }
      ],
      "name": "supportsInterface",
      "outputs": [
        {
          "internalType": "bool",
          "name": "",
          "type": "bool"
        }
      ],
      "stateMutability": "view",
      "type": "function"
    },
    {
      "inputs": [],
      "name": "symbol",
      "outputs": [
        {
          "internalType": "string",
          "name": "",
          "type": "string"
        }
      ],
      "stateMutability": "view",
      "type": "function"
    },
    {
      "inputs": [
        {
          "internalType": "uint256",
          "name": "tokenId",
          "type": "uint256"
        }
      ],
      "name": "tokenURI",
      "outputs": [
        {
          "internalType": "string",
          "name": "",
          "type": "string"
        }
      ],
      "stateMutability": "view",
      "type": "function"
    },
    {
      "inputs": [
        {
          "internalType": "address",
          "name": "from",
          "type": "address"
        },
        {
          "internalType": "address",
          "name": "to",
          "type": "address"
        },
        {
          "internalType": "uint256",
          "name": "tokenId",
          "type": "uint256"
        }
      ],
      "name": "transferFrom",
      "outputs": [],
      "stateMutability": "nonpayable",
      "type": "function"
    },
    {
      "inputs": [
        {
          "internalType": "bytes32",
          "name": "gameplayHash",
          "type": "bytes32"
        },
        {
          "internalType": "bytes32",
          "name": "_r",
          "type": "bytes32"
        },
        {
          "internalType": "bytes32",
          "name": "_s",
          "type": "bytes32"
        },
        {
          "internalType": "uint8",
          "name": "_v",
          "type": "uint8"
        }
      ],
      "name": "verifySignature",
      "outputs": [
        {
          "internalType": "address",
          "name": "",
          "type": "address"
        }
      ],
      "stateMutability": "pure",
      "type": "function"
    }
  ],
  "bytecode": {
    "object": "0x60806040523480156200001157600080fd5b5060405162002751380380620027518339810160408190526200003491620000ca565b6040518060400160405280600d81526020016c149a5d995cd4d8dbdc99539195609a1b815250604051806040016040528060058152602001641494d3919560da1b8152508160009081620000899190620001a1565b506001620000988282620001a1565b5050600980546001600160a01b039093166001600160a01b031993841617905550600a8054909116331790556200026d565b600060208284031215620000dd57600080fd5b81516001600160a01b0381168114620000f557600080fd5b9392505050565b634e487b7160e01b600052604160045260246000fd5b600181811c908216806200012757607f821691505b6020821081036200014857634e487b7160e01b600052602260045260246000fd5b50919050565b601f8211156200019c57600081815260208120601f850160051c81016020861015620001775750805b601f850160051c820191505b81811015620001985782815560010162000183565b5050505b505050565b81516001600160401b03811115620001bd57620001bd620000fc565b620001d581620001ce845462000112565b846200014e565b602080601f8311600181146200020d5760008415620001f45750858301515b600019600386901b1c1916600185901b17855562000198565b600085815260208120601f198616915b828110156200023e578886015182559484019460019091019084016200021d565b50858210156200025d5787850151600019600388901b60f8161c191681555b5050505050600190811b01905550565b6124d4806200027d6000396000f3fe608060405234801561001057600080fd5b50600436106101375760003560e01c80636352211e116100b8578063b3ab15fb1161007c578063b3ab15fb1461028d578063b88d4fde146102a0578063c521030a146102b3578063c87b56dd146102c6578063e985e9c5146102d9578063eadc7463146102ec57600080fd5b80636352211e1461022b57806370a082311461023e57806395d89b411461025f5780639da52e2514610267578063a22cb4651461027a57600080fd5b80631926dbe0116100ff5780631926dbe0146101cc5780631a721b7b146101df57806323b872dd146101f257806342842e0e14610205578063570ca7351461021857600080fd5b806301ffc9a71461013c57806306fdde0314610164578063081812fc14610179578063095ea7b3146101a45780630d413d62146101b9575b600080fd5b61014f61014a3660046119d2565b610315565b60405190151581526020015b60405180910390f35b61016c610340565b60405161015b9190611a3f565b61018c610187366004611a52565b6103d2565b6040516001600160a01b03909116815260200161015b565b6101b76101b2366004611a80565b6103f9565b005b61018c6101c7366004611aac565b610513565b61014f6101da366004611af3565b6105c9565b60095461018c906001600160a01b031681565b6101b7610200366004611b8d565b61081a565b6101b7610213366004611b8d565b61084b565b600a5461018c906001600160a01b031681565b61018c610239366004611a52565b610866565b61025161024c366004611bce565b6108c6565b60405190815260200161015b565b61016c61094c565b610251610275366004611af3565b61095b565b6101b7610288366004611bf9565b610d51565b6101b761029b366004611bce565b610d60565b6101b76102ae366004611cbd565b610def565b6101b76102c1366004611aac565b610e27565b61016c6102d4366004611a52565b610f71565b61014f6102e7366004611d3c565b611079565b61018c6102fa366004611a52565b6008602052600090815260409020546001600160a01b031681565b60006001600160e01b03198216632483248360e11b148061033a575061033a826110a7565b92915050565b60606000805461034f90611d6a565b80601f016020809104026020016040519081016040528092919081815260200182805461037b90611d6a565b80156103c85780601f1061039d576101008083540402835291602001916103c8565b820191906000526020600020905b8154815290600101906020018083116103ab57829003601f168201915b5050505050905090565b60006103dd826110f7565b506000908152600460205260409020546001600160a01b031690565b600061040482610866565b9050806001600160a01b0316836001600160a01b0316036104765760405162461bcd60e51b815260206004820152602160248201527f4552433732313a20617070726f76616c20746f2063757272656e74206f776e656044820152603960f91b60648201526084015b60405180910390fd5b336001600160a01b038216148061049257506104928133611079565b6105045760405162461bcd60e51b815260206004820152603d60248201527f4552433732313a20617070726f76652063616c6c6572206973206e6f7420746f60448201527f6b656e206f776e6572206f7220617070726f76656420666f7220616c6c000000606482015260840161046d565b61050e8383611159565b505050565b6040517f19457468657265756d205369676e6564204d6573736167653a0a3332000000006020820152603c81018590526000908190605c0160408051601f1981840301815282825280516020918201206000845290830180835281905260ff8616918301919091526060820187905260808201869052915060019060a0016020604051602081039080840390855afa1580156105b3573d6000803e3d6000fd5b505050602060405103519150505b949350505050565b600954604051634b243ea360e11b81526000916001600160a01b03169081906396487d469061060090889088908890600401611eaf565b602060405180830381865afa15801561061d573d6000803e3d6000fd5b505050506040513d601f19601f820116820180604052508101906106419190611fbe565b506000816001600160a01b031663179e740b6040518163ffffffff1660e01b8152600401602060405180830381865afa158015610682573d6000803e3d6000fd5b505050506040513d601f19601f820116820180604052508101906106a69190611fdb565b6009546001600160a01b039182169163d79a824091166106c96020880188611ff8565b6040518463ffffffff1660e01b81526004016106e79392919061203e565b606060405180830381865afa158015610704573d6000803e3d6000fd5b505050506040513d601f19601f82011682018060405250810190610728919061206c565b50915060009050610739858061209a565b6107479060208101906120ba565b61075a906001600160401b0316836120d5565b9050600061079061076b878061209a565b61077c9060408101906020016120ba565b6001600160401b03168360809190911b1790565b6040516303fbaf7360e01b8152600760048201526024810182905290915073__$a2d1d09b8c9dde07c4c42ad76981d49793$__906303fbaf7390604401602060405180830381865af41580156107ea573d6000803e3d6000fd5b505050506040513d601f19601f8201168201806040525081019061080e9190611fbe565b98975050505050505050565b61082433826111c7565b6108405760405162461bcd60e51b815260040161046d906120f6565b61050e838383611225565b61050e83838360405180602001604052806000815250610def565b6000818152600260205260408120546001600160a01b03168061033a5760405162461bcd60e51b8152602060048201526018602482015277115490cdcc8c4e881a5b9d985b1a59081d1bdad95b88125160421b604482015260640161046d565b60006001600160a01b0382166109305760405162461bcd60e51b815260206004820152602960248201527f4552433732313a2061646472657373207a65726f206973206e6f7420612076616044820152683634b21037bbb732b960b91b606482015260840161046d565b506001600160a01b031660009081526003602052604090205490565b60606001805461034f90611d6a565b600954604051634b243ea360e11b81526000916001600160a01b03169081906396487d469061099290889088908890600401611eaf565b602060405180830381865afa1580156109af573d6000803e3d6000fd5b505050506040513d601f19601f820116820180604052508101906109d39190611fbe565b506000816001600160a01b031663179e740b6040518163ffffffff1660e01b8152600401602060405180830381865afa158015610a14573d6000803e3d6000fd5b505050506040513d601f19601f82011682018060405250810190610a389190611fdb565b6009546001600160a01b039182169163d79a82409116610a5b6020880188611ff8565b6040518463ffffffff1660e01b8152600401610a799392919061203e565b606060405180830381865afa158015610a96573d6000803e3d6000fd5b505050506040513d601f19601f82011682018060405250810190610aba919061206c565b50915060009050610acb858061209a565b610ad99060208101906120ba565b610aec906001600160401b0316836120d5565b90506000610afd61076b878061209a565b6040516303fbaf7360e01b8152600760048201526024810182905290915073__$a2d1d09b8c9dde07c4c42ad76981d49793$__906303fbaf7390604401602060405180830381865af4158015610b57573d6000803e3d6000fd5b505050506040513d601f19601f82011682018060405250810190610b7b9190611fbe565b15610bc85760405162461bcd60e51b815260206004820152601f60248201527f6e6f746963652072652d7375626d6974696e67206e6f7420616c6c6f77656400604482015260640161046d565b60008080610bd88a8c018c61216e565b600a54989c50909a5098508a975050506001600160a01b03948516948616949094039350610c8292505050576000828152600860205260409020546001600160a01b0316610c685760405162461bcd60e51b815260206004820152601960248201527f4e6f2067616d65706c6179206f776e657220646566696e656400000000000000604482015260640161046d565b506000818152600860205260409020546001600160a01b03165b6040516306449da160e41b815260076004820152602481018690526001604482015273__$a2d1d09b8c9dde07c4c42ad76981d49793$__90636449da109060640160006040518083038186803b158015610cdb57600080fd5b505af4158015610cef573d6000803e3d6000fd5b50505050610d01600b80546001019055565b6000610d0c600b5490565b9050610d188282611389565b610d418185604051602001610d2d9190612242565b604051602081830303815290604052611514565b9c9b505050505050505050505050565b610d5c3383836115df565b5050565b600a546001600160a01b03163314610dcd5760405162461bcd60e51b815260206004820152602a60248201527f4f6e6c792063757272656e74206f70657261746f722063616e20736574206e656044820152693b9037b832b930ba37b960b11b606482015260840161046d565b600a80546001600160a01b0319166001600160a01b0392909216919091179055565b610df933836111c7565b610e155760405162461bcd60e51b815260040161046d906120f6565b610e21848484846116ad565b50505050565b6040517f19457468657265756d205369676e6564204d6573736167653a0a3332000000006020820152603c8101859052600090605c0160408051601f198184030181528282528051602091820120600080855291840180845281905260ff86169284019290925260608301879052608083018690529092509060019060a0016020604051602081039080840390855afa158015610ec8573d6000803e3d6000fd5b5050604051601f190151600a549092506001600160a01b038084169116149050610f4c5760405162461bcd60e51b815260206004820152602f60248201527f53696e676e6564206d65737361676520646f6573206e6f74206d61746368206360448201526e3ab93932b73a1037b832b930ba37b960891b606482015260840161046d565b5050506000928352505060086020526040902080546001600160a01b03191633179055565b6060610f7c826110f7565b60008281526006602052604081208054610f9590611d6a565b80601f0160208091040260200160405190810160405280929190818152602001828054610fc190611d6a565b801561100e5780601f10610fe35761010080835404028352916020019161100e565b820191906000526020600020905b815481529060010190602001808311610ff157829003601f168201915b50505050509050600061102c60408051602081019091526000815290565b9050805160000361103e575092915050565b815115611070578082604051602001611058929190612271565b60405160208183030381529060405292505050919050565b6105c1846116e0565b6001600160a01b03918216600090815260056020908152604080832093909416825291909152205460ff1690565b60006001600160e01b031982166380ac58cd60e01b14806110d857506001600160e01b03198216635b5e139f60e01b145b8061033a57506301ffc9a760e01b6001600160e01b031983161461033a565b6000818152600260205260409020546001600160a01b03166111565760405162461bcd60e51b8152602060048201526018602482015277115490cdcc8c4e881a5b9d985b1a59081d1bdad95b88125160421b604482015260640161046d565b50565b600081815260046020526040902080546001600160a01b0319166001600160a01b038416908117909155819061118e82610866565b6001600160a01b03167f8c5be1e5ebec7d5bd14f71427d1e84f3dd0314c0f7b2291e5b200ac8c7c3b92560405160405180910390a45050565b6000806111d383610866565b9050806001600160a01b0316846001600160a01b031614806111fa57506111fa8185611079565b806105c15750836001600160a01b0316611213846103d2565b6001600160a01b031614949350505050565b826001600160a01b031661123882610866565b6001600160a01b03161461125e5760405162461bcd60e51b815260040161046d906122a0565b6001600160a01b0382166112c05760405162461bcd60e51b8152602060048201526024808201527f4552433732313a207472616e7366657220746f20746865207a65726f206164646044820152637265737360e01b606482015260840161046d565b826001600160a01b03166112d382610866565b6001600160a01b0316146112f95760405162461bcd60e51b815260040161046d906122a0565b600081815260046020908152604080832080546001600160a01b03199081169091556001600160a01b0387811680865260038552838620805460001901905590871680865283862080546001019055868652600290945282852080549092168417909155905184937fddf252ad1be2c89b69c2b068fc378daa952ba7f163c4a11628f55a4df523b3ef91a4505050565b6001600160a01b0382166113df5760405162461bcd60e51b815260206004820181905260248201527f4552433732313a206d696e7420746f20746865207a65726f2061646472657373604482015260640161046d565b6000818152600260205260409020546001600160a01b0316156114445760405162461bcd60e51b815260206004820152601c60248201527f4552433732313a20746f6b656e20616c7265616479206d696e74656400000000604482015260640161046d565b6000818152600260205260409020546001600160a01b0316156114a95760405162461bcd60e51b815260206004820152601c60248201527f4552433732313a20746f6b656e20616c7265616479206d696e74656400000000604482015260640161046d565b6001600160a01b038216600081815260036020908152604080832080546001019055848352600290915280822080546001600160a01b0319168417905551839291907fddf252ad1be2c89b69c2b068fc378daa952ba7f163c4a11628f55a4df523b3ef908290a45050565b6000828152600260205260409020546001600160a01b031661158f5760405162461bcd60e51b815260206004820152602e60248201527f45524337323155524953746f726167653a2055524920736574206f66206e6f6e60448201526d32bc34b9ba32b73a103a37b5b2b760911b606482015260840161046d565b60008281526006602052604090206115a78282612333565b506040518281527ff8e1a15aba9398e019f0b49df1a4fde98ee17ae345cb5f6b5e2c27f5033e8ce79060200160405180910390a15050565b816001600160a01b0316836001600160a01b0316036116405760405162461bcd60e51b815260206004820152601960248201527f4552433732313a20617070726f766520746f2063616c6c657200000000000000604482015260640161046d565b6001600160a01b03838116600081815260056020908152604080832094871680845294825291829020805460ff191686151590811790915591519182527f17307eab39ab6107e8899845ad3d59bd9653f200f220920489ca2b5937696c31910160405180910390a3505050565b6116b8848484611225565b6116c484848484611754565b610e215760405162461bcd60e51b815260040161046d906123f2565b60606116eb826110f7565b600061170260408051602081019091526000815290565b90506000815111611722576040518060200160405280600081525061174d565b8061172c84611852565b60405160200161173d929190612271565b6040516020818303038152906040525b9392505050565b60006001600160a01b0384163b1561184a57604051630a85bd0160e11b81526001600160a01b0385169063150b7a0290611798903390899088908890600401612444565b6020604051808303816000875af19250505080156117d3575060408051601f3d908101601f191682019092526117d091810190612481565b60015b611830573d808015611801576040519150601f19603f3d011682016040523d82523d6000602084013e611806565b606091505b5080516000036118285760405162461bcd60e51b815260040161046d906123f2565b805181602001fd5b6001600160e01b031916630a85bd0160e11b1490506105c1565b5060016105c1565b6060600061185f836118e4565b60010190506000816001600160401b0381111561187e5761187e611c32565b6040519080825280601f01601f1916602001820160405280156118a8576020820181803683370190505b5090508181016020015b600019016f181899199a1a9b1b9c1cb0b131b232b360811b600a86061a8153600a85049450846118b257509392505050565b60008072184f03e93ff9f4daa797ed6e38ed64bf6a1f0160401b83106119235772184f03e93ff9f4daa797ed6e38ed64bf6a1f0160401b830492506040015b6d04ee2d6d415b85acef8100000000831061194f576d04ee2d6d415b85acef8100000000830492506020015b662386f26fc10000831061196d57662386f26fc10000830492506010015b6305f5e1008310611985576305f5e100830492506008015b612710831061199957612710830492506004015b606483106119ab576064830492506002015b600a831061033a5760010192915050565b6001600160e01b03198116811461115657600080fd5b6000602082840312156119e457600080fd5b813561174d816119bc565b60005b83811015611a0a5781810151838201526020016119f2565b50506000910152565b60008151808452611a2b8160208601602086016119ef565b601f01601f19169290920160200192915050565b60208152600061174d6020830184611a13565b600060208284031215611a6457600080fd5b5035919050565b6001600160a01b038116811461115657600080fd5b60008060408385031215611a9357600080fd5b8235611a9e81611a6b565b946020939093013593505050565b60008060008060808587031215611ac257600080fd5b843593506020850135925060408501359150606085013560ff81168114611ae857600080fd5b939692955090935050565b600080600060408486031215611b0857600080fd5b83356001600160401b0380821115611b1f57600080fd5b818601915086601f830112611b3357600080fd5b813581811115611b4257600080fd5b876020828501011115611b5457600080fd5b602092830195509350908501359080821115611b6f57600080fd5b50840160408187031215611b8257600080fd5b809150509250925092565b600080600060608486031215611ba257600080fd5b8335611bad81611a6b565b92506020840135611bbd81611a6b565b929592945050506040919091013590565b600060208284031215611be057600080fd5b813561174d81611a6b565b801515811461115657600080fd5b60008060408385031215611c0c57600080fd5b8235611c1781611a6b565b91506020830135611c2781611beb565b809150509250929050565b634e487b7160e01b600052604160045260246000fd5b60006001600160401b0380841115611c6257611c62611c32565b604051601f8501601f19908116603f01168101908282118183101715611c8a57611c8a611c32565b81604052809350858152868686011115611ca357600080fd5b858560208301376000602087830101525050509392505050565b60008060008060808587031215611cd357600080fd5b8435611cde81611a6b565b93506020850135611cee81611a6b565b92506040850135915060608501356001600160401b03811115611d1057600080fd5b8501601f81018713611d2157600080fd5b611d3087823560208401611c48565b91505092959194509250565b60008060408385031215611d4f57600080fd5b8235611d5a81611a6b565b91506020830135611c2781611a6b565b600181811c90821680611d7e57607f821691505b602082108103611d9e57634e487b7160e01b600052602260045260246000fd5b50919050565b81835281816020850137506000828201602090810191909152601f909101601f19169091010190565b80356001600160401b0381168114611de457600080fd5b919050565b6000808335601e19843603018112611e0057600080fd5b83016020810192503590506001600160401b03811115611e1f57600080fd5b8060051b3603821315611e3157600080fd5b9250929050565b81835260006001600160fb1b03831115611e5157600080fd5b8260051b80836020870137939093016020019392505050565b6000808335601e19843603018112611e8157600080fd5b83016020810192503590506001600160401b03811115611ea057600080fd5b803603821315611e3157600080fd5b604081526000611ec3604083018587611da4565b8281036020840152833560fe19853603018112611edf57600080fd5b6040825284016001600160401b03611ef682611dcd565b166040830152611f0860208201611dcd565b6001600160401b03811660608401525060408101356080830152606081013560a0830152608081013560c083015260a081013560e0830152611f4d60c0820182611de9565b61010084810152611f6361014085018284611e38565b915050611f7360e0830183611de9565b848303603f19016101208601529250611f8d828483611e38565b92505050611f9e6020860186611e6a565b8383036020850152611fb1838284611da4565b9998505050505050505050565b600060208284031215611fd057600080fd5b815161174d81611beb565b600060208284031215611fed57600080fd5b815161174d81611a6b565b6000808335601e1984360301811261200f57600080fd5b8301803591506001600160401b0382111561202957600080fd5b602001915036819003821315611e3157600080fd5b6001600160a01b03841681526040602082018190526000906120639083018486611da4565b95945050505050565b60008060006060848603121561208157600080fd5b8351925060208401519150604084015190509250925092565b6000823560fe198336030181126120b057600080fd5b9190910192915050565b6000602082840312156120cc57600080fd5b61174d82611dcd565b8082018082111561033a57634e487b7160e01b600052601160045260246000fd5b6020808252602d908201527f4552433732313a2063616c6c6572206973206e6f7420746f6b656e206f776e6560408201526c1c881bdc88185c1c1c9bdd9959609a1b606082015260800190565b8035611de481611a6b565b600082601f83011261215f57600080fd5b61174d83833560208501611c48565b6000806000806000806000806000806101408b8d03121561218e57600080fd5b8a35995061219e60208c01612143565b985060408b0135975060608b0135965060808b0135955060a08b0135945060c08b01356001600160401b03808211156121d657600080fd5b6121e28e838f0161214e565b955060e08d01359150808211156121f857600080fd5b6122048e838f0161214e565b94506101008d013591508082111561221b57600080fd5b506122288d828e0161214e565b9250506101208b013590509295989b9194979a5092959850565b66697066733a2f2f60c81b8152600082516122648160078501602087016119ef565b9190910160070192915050565b600083516122838184602088016119ef565b8351908301906122978183602088016119ef565b01949350505050565b60208082526025908201527f4552433732313a207472616e736665722066726f6d20696e636f72726563742060408201526437bbb732b960d91b606082015260800190565b601f82111561050e57600081815260208120601f850160051c8101602086101561230c5750805b601f850160051c820191505b8181101561232b57828155600101612318565b505050505050565b81516001600160401b0381111561234c5761234c611c32565b6123608161235a8454611d6a565b846122e5565b602080601f831160018114612395576000841561237d5750858301515b600019600386901b1c1916600185901b17855561232b565b600085815260208120601f198616915b828110156123c4578886015182559484019460019091019084016123a5565b50858210156123e25787850151600019600388901b60f8161c191681555b5050505050600190811b01905550565b60208082526032908201527f4552433732313a207472616e7366657220746f206e6f6e20455243373231526560408201527131b2b4bb32b91034b6b83632b6b2b73a32b960711b606082015260800190565b6001600160a01b038581168252841660208201526040810183905260806060820181905260009061247790830184611a13565b9695505050505050565b60006020828403121561249357600080fd5b815161174d816119bc56fea2646970667358221220bbcaeeffe2bcbcb3e7720ead06a5d20487ae48f85dba953b486820085460679464736f6c63430008140033",
    "linkReferences": {
      "node_modules/@cartesi/util/contracts/Bitmask.sol": {
        "Bitmask": [
          {
            "start": 2605,
            "length": 20
          },
          {
            "start": 3482,
            "length": 20
          },
          {
            "start": 3875,
            "length": 20
          }
        ]
      }
    }
  },
  "methodIdentifiers": {
    "approve(address,uint256)": "095ea7b3",
    "balanceOf(address)": "70a08231",
    "ckeckMinted(bytes,((uint64,uint64,bytes32,bytes32,bytes32,bytes32,bytes32[],bytes32[]),bytes))": "1926dbe0",
    "dappAddress()": "1a721b7b",
    "gamelogOwner(bytes32)": "eadc7463",
    "getApproved(uint256)": "081812fc",
    "isApprovedForAll(address,address)": "e985e9c5",
    "mint(bytes,((uint64,uint64,bytes32,bytes32,bytes32,bytes32,bytes32[],bytes32[]),bytes))": "9da52e25",
    "name()": "06fdde03",
    "operator()": "570ca735",
    "ownerOf(uint256)": "6352211e",
    "safeTransferFrom(address,address,uint256)": "42842e0e",
    "safeTransferFrom(address,address,uint256,bytes)": "b88d4fde",
    "setApprovalForAll(address,bool)": "a22cb465",
    "setGameplayOwner(bytes32,bytes32,bytes32,uint8)": "c521030a",
    "setOperator(address)": "b3ab15fb",
    "supportsInterface(bytes4)": "01ffc9a7",
    "symbol()": "95d89b41",
    "tokenURI(uint256)": "c87b56dd",
    "transferFrom(address,address,uint256)": "23b872dd",
    "verifySignature(bytes32,bytes32,bytes32,uint8)": "0d413d62"
  },
  "id": 0
}