{
  "abi": [
    {
      "inputs": [
        {
          "internalType": "address",
          "name": "_dappAddress",
          "type": "address"
        }
      ],
      "stateMutability": "nonpayable",
      "type": "constructor"
    },
    {
      "anonymous": false,
      "inputs": [
        {
          "indexed": true,
          "internalType": "address",
          "name": "owner",
          "type": "address"
        },
        {
          "indexed": true,
          "internalType": "address",
          "name": "approved",
          "type": "address"
        },
        {
          "indexed": true,
          "internalType": "uint256",
          "name": "tokenId",
          "type": "uint256"
        }
      ],
      "name": "Approval",
      "type": "event"
    },
    {
      "anonymous": false,
      "inputs": [
        {
          "indexed": true,
          "internalType": "address",
          "name": "owner",
          "type": "address"
        },
        {
          "indexed": true,
          "internalType": "address",
          "name": "operator",
          "type": "address"
        },
        {
          "indexed": false,
          "internalType": "bool",
          "name": "approved",
          "type": "bool"
        }
      ],
      "name": "ApprovalForAll",
      "type": "event"
    },
    {
      "anonymous": false,
      "inputs": [
        {
          "indexed": false,
          "internalType": "uint256",
          "name": "_fromTokenId",
          "type": "uint256"
        },
        {
          "indexed": false,
          "internalType": "uint256",
          "name": "_toTokenId",
          "type": "uint256"
        }
      ],
      "name": "BatchMetadataUpdate",
      "type": "event"
    },
    {
      "anonymous": false,
      "inputs": [
        {
          "indexed": false,
          "internalType": "uint256",
          "name": "_tokenId",
          "type": "uint256"
        }
      ],
      "name": "MetadataUpdate",
      "type": "event"
    },
    {
      "anonymous": false,
      "inputs": [
        {
          "indexed": true,
          "internalType": "address",
          "name": "from",
          "type": "address"
        },
        {
          "indexed": true,
          "internalType": "address",
          "name": "to",
          "type": "address"
        },
        {
          "indexed": true,
          "internalType": "uint256",
          "name": "tokenId",
          "type": "uint256"
        }
      ],
      "name": "Transfer",
      "type": "event"
    },
    {
      "inputs": [
        {
          "internalType": "address",
          "name": "to",
          "type": "address"
        },
        {
          "internalType": "uint256",
          "name": "tokenId",
          "type": "uint256"
        }
      ],
      "name": "approve",
      "outputs": [],
      "stateMutability": "nonpayable",
      "type": "function"
    },
    {
      "inputs": [
        {
          "internalType": "address",
          "name": "owner",
          "type": "address"
        }
      ],
      "name": "balanceOf",
      "outputs": [
        {
          "internalType": "uint256",
          "name": "",
          "type": "uint256"
        }
      ],
      "stateMutability": "view",
      "type": "function"
    },
    {
      "inputs": [
        {
          "internalType": "bytes",
          "name": "_payload",
          "type": "bytes"
        },
        {
          "components": [
            {
              "components": [
                {
                  "internalType": "uint64",
                  "name": "inputIndexWithinEpoch",
                  "type": "uint64"
                },
                {
                  "internalType": "uint64",
                  "name": "outputIndexWithinInput",
                  "type": "uint64"
                },
                {
                  "internalType": "bytes32",
                  "name": "outputHashesRootHash",
                  "type": "bytes32"
                },
                {
                  "internalType": "bytes32",
                  "name": "vouchersEpochRootHash",
                  "type": "bytes32"
                },
                {
                  "internalType": "bytes32",
                  "name": "noticesEpochRootHash",
                  "type": "bytes32"
                },
                {
                  "internalType": "bytes32",
                  "name": "machineStateHash",
                  "type": "bytes32"
                },
                {
                  "internalType": "bytes32[]",
                  "name": "outputHashInOutputHashesSiblings",
                  "type": "bytes32[]"
                },
                {
                  "internalType": "bytes32[]",
                  "name": "outputHashesInEpochSiblings",
                  "type": "bytes32[]"
                }
              ],
              "internalType": "struct OutputValidityProof",
              "name": "validity",
              "type": "tuple"
            },
            {
              "internalType": "bytes",
              "name": "context",
              "type": "bytes"
            }
          ],
          "internalType": "struct Proof",
          "name": "_v",
          "type": "tuple"
        }
      ],
      "name": "ckeckMinted",
      "outputs": [
        {
          "internalType": "bool",
          "name": "",
          "type": "bool"
        }
      ],
      "stateMutability": "view",
      "type": "function"
    },
    {
      "inputs": [],
      "name": "dappAddress",
      "outputs": [
        {
          "internalType": "address",
          "name": "",
          "type": "address"
        }
      ],
      "stateMutability": "view",
      "type": "function"
    },
    {
      "inputs": [
        {
          "internalType": "bytes32",
          "name": "",
          "type": "bytes32"
        }
      ],
      "name": "gamelogOwner",
      "outputs": [
        {
          "internalType": "address",
          "name": "",
          "type": "address"
        }
      ],
      "stateMutability": "view",
      "type": "function"
    },
    {
      "inputs": [
        {
          "internalType": "uint256",
          "name": "tokenId",
          "type": "uint256"
        }
      ],
      "name": "getApproved",
      "outputs": [
        {
          "internalType": "address",
          "name": "",
          "type": "address"
        }
      ],
      "stateMutability": "view",
      "type": "function"
    },
    {
      "inputs": [
        {
          "internalType": "address",
          "name": "owner",
          "type": "address"
        },
        {
          "internalType": "address",
          "name": "operator",
          "type": "address"
        }
      ],
      "name": "isApprovedForAll",
      "outputs": [
        {
          "internalType": "bool",
          "name": "",
          "type": "bool"
        }
      ],
      "stateMutability": "view",
      "type": "function"
    },
    {
      "inputs": [
        {
          "internalType": "bytes",
          "name": "_payload",
          "type": "bytes"
        },
        {
          "components": [
            {
              "components": [
                {
                  "internalType": "uint64",
                  "name": "inputIndexWithinEpoch",
                  "type": "uint64"
                },
                {
                  "internalType": "uint64",
                  "name": "outputIndexWithinInput",
                  "type": "uint64"
                },
                {
                  "internalType": "bytes32",
                  "name": "outputHashesRootHash",
                  "type": "bytes32"
                },
                {
                  "internalType": "bytes32",
                  "name": "vouchersEpochRootHash",
                  "type": "bytes32"
                },
                {
                  "internalType": "bytes32",
                  "name": "noticesEpochRootHash",
                  "type": "bytes32"
                },
                {
                  "internalType": "bytes32",
                  "name": "machineStateHash",
                  "type": "bytes32"
                },
                {
                  "internalType": "bytes32[]",
                  "name": "outputHashInOutputHashesSiblings",
                  "type": "bytes32[]"
                },
                {
                  "internalType": "bytes32[]",
                  "name": "outputHashesInEpochSiblings",
                  "type": "bytes32[]"
                }
              ],
              "internalType": "struct OutputValidityProof",
              "name": "validity",
              "type": "tuple"
            },
            {
              "internalType": "bytes",
              "name": "context",
              "type": "bytes"
            }
          ],
          "internalType": "struct Proof",
          "name": "_v",
          "type": "tuple"
        }
      ],
      "name": "mint",
      "outputs": [
        {
          "internalType": "uint256",
          "name": "",
          "type": "uint256"
        }
      ],
      "stateMutability": "nonpayable",
      "type": "function"
    },
    {
      "inputs": [],
      "name": "name",
      "outputs": [
        {
          "internalType": "string",
          "name": "",
          "type": "string"
        }
      ],
      "stateMutability": "view",
      "type": "function"
    },
    {
      "inputs": [],
      "name": "operator",
      "outputs": [
        {
          "internalType": "address",
          "name": "",
          "type": "address"
        }
      ],
      "stateMutability": "view",
      "type": "function"
    },
    {
      "inputs": [
        {
          "internalType": "uint256",
          "name": "tokenId",
          "type": "uint256"
        }
      ],
      "name": "ownerOf",
      "outputs": [
        {
          "internalType": "address",
          "name": "",
          "type": "address"
        }
      ],
      "stateMutability": "view",
      "type": "function"
    },
    {
      "inputs": [
        {
          "internalType": "address",
          "name": "from",
          "type": "address"
        },
        {
          "internalType": "address",
          "name": "to",
          "type": "address"
        },
        {
          "internalType": "uint256",
          "name": "tokenId",
          "type": "uint256"
        }
      ],
      "name": "safeTransferFrom",
      "outputs": [],
      "stateMutability": "nonpayable",
      "type": "function"
    },
    {
      "inputs": [
        {
          "internalType": "address",
          "name": "from",
          "type": "address"
        },
        {
          "internalType": "address",
          "name": "to",
          "type": "address"
        },
        {
          "internalType": "uint256",
          "name": "tokenId",
          "type": "uint256"
        },
        {
          "internalType": "bytes",
          "name": "data",
          "type": "bytes"
        }
      ],
      "name": "safeTransferFrom",
      "outputs": [],
      "stateMutability": "nonpayable",
      "type": "function"
    },
    {
      "inputs": [
        {
          "internalType": "address",
          "name": "operator",
          "type": "address"
        },
        {
          "internalType": "bool",
          "name": "approved",
          "type": "bool"
        }
      ],
      "name": "setApprovalForAll",
      "outputs": [],
      "stateMutability": "nonpayable",
      "type": "function"
    },
    {
      "inputs": [
        {
          "internalType": "bytes32",
          "name": "gameplayHash",
          "type": "bytes32"
        },
        {
          "internalType": "bytes32",
          "name": "_r",
          "type": "bytes32"
        },
        {
          "internalType": "bytes32",
          "name": "_s",
          "type": "bytes32"
        },
        {
          "internalType": "uint8",
          "name": "_v",
          "type": "uint8"
        }
      ],
      "name": "setGameplayOwner",
      "outputs": [],
      "stateMutability": "nonpayable",
      "type": "function"
    },
    {
      "inputs": [
        {
          "internalType": "address",
          "name": "newOperator",
          "type": "address"
        }
      ],
      "name": "setOperator",
      "outputs": [],
      "stateMutability": "nonpayable",
      "type": "function"
    },
    {
      "inputs": [
        {
          "internalType": "bytes4",
          "name": "interfaceId",
          "type": "bytes4"
        }
      ],
      "name": "supportsInterface",
      "outputs": [
        {
          "internalType": "bool",
          "name": "",
          "type": "bool"
        }
      ],
      "stateMutability": "view",
      "type": "function"
    },
    {
      "inputs": [],
      "name": "symbol",
      "outputs": [
        {
          "internalType": "string",
          "name": "",
          "type": "string"
        }
      ],
      "stateMutability": "view",
      "type": "function"
    },
    {
      "inputs": [
        {
          "internalType": "uint256",
          "name": "tokenId",
          "type": "uint256"
        }
      ],
      "name": "tokenURI",
      "outputs": [
        {
          "internalType": "string",
          "name": "",
          "type": "string"
        }
      ],
      "stateMutability": "view",
      "type": "function"
    },
    {
      "inputs": [
        {
          "internalType": "address",
          "name": "from",
          "type": "address"
        },
        {
          "internalType": "address",
          "name": "to",
          "type": "address"
        },
        {
          "internalType": "uint256",
          "name": "tokenId",
          "type": "uint256"
        }
      ],
      "name": "transferFrom",
      "outputs": [],
      "stateMutability": "nonpayable",
      "type": "function"
    },
    {
      "inputs": [
        {
          "internalType": "bytes32",
          "name": "gameplayHash",
          "type": "bytes32"
        },
        {
          "internalType": "bytes32",
          "name": "_r",
          "type": "bytes32"
        },
        {
          "internalType": "bytes32",
          "name": "_s",
          "type": "bytes32"
        },
        {
          "internalType": "uint8",
          "name": "_v",
          "type": "uint8"
        }
      ],
      "name": "verifySignature",
      "outputs": [
        {
          "internalType": "address",
          "name": "",
          "type": "address"
        }
      ],
      "stateMutability": "pure",
      "type": "function"
    }
  ],
  "bytecode": {
    "object": "0x60806040523480156200001157600080fd5b506040516200246a3803806200246a8339810160408190526200003491620000ca565b6040518060400160405280600d81526020016c149a5d995cd4d8dbdc99539195609a1b815250604051806040016040528060058152602001641494d3919560da1b8152508160009081620000899190620001a1565b506001620000988282620001a1565b5050600980546001600160a01b039093166001600160a01b031993841617905550600a8054909116331790556200026d565b600060208284031215620000dd57600080fd5b81516001600160a01b0381168114620000f557600080fd5b9392505050565b634e487b7160e01b600052604160045260246000fd5b600181811c908216806200012757607f821691505b6020821081036200014857634e487b7160e01b600052602260045260246000fd5b50919050565b601f8211156200019c57600081815260208120601f850160051c81016020861015620001775750805b601f850160051c820191505b81811015620001985782815560010162000183565b5050505b505050565b81516001600160401b03811115620001bd57620001bd620000fc565b620001d581620001ce845462000112565b846200014e565b602080601f8311600181146200020d5760008415620001f45750858301515b600019600386901b1c1916600185901b17855562000198565b600085815260208120601f198616915b828110156200023e578886015182559484019460019091019084016200021d565b50858210156200025d5787850151600019600388901b60f8161c191681555b5050505050600190811b01905550565b6121ed806200027d6000396000f3fe608060405234801561001057600080fd5b50600436106101375760003560e01c80636352211e116100b8578063b3ab15fb1161007c578063b3ab15fb1461028d578063b88d4fde146102a0578063c521030a146102b3578063c87b56dd146102c6578063e985e9c5146102d9578063eadc74631461031557600080fd5b80636352211e1461022b57806370a082311461023e57806395d89b411461025f5780639da52e2514610267578063a22cb4651461027a57600080fd5b80631926dbe0116100ff5780631926dbe0146101cc5780631a721b7b146101df57806323b872dd146101f257806342842e0e14610205578063570ca7351461021857600080fd5b806301ffc9a71461013c57806306fdde0314610164578063081812fc14610179578063095ea7b3146101a45780630d413d62146101b9575b600080fd5b61014f61014a3660046117d5565b61033e565b60405190151581526020015b60405180910390f35b61016c610369565b60405161015b9190611842565b61018c610187366004611855565b6103fb565b6040516001600160a01b03909116815260200161015b565b6101b76101b2366004611883565b610422565b005b61018c6101c73660046118af565b61053c565b61014f6101da3660046118f6565b6105f2565b60095461018c906001600160a01b031681565b6101b7610200366004611990565b610747565b6101b7610213366004611990565b610778565b600a5461018c906001600160a01b031681565b61018c610239366004611855565b610793565b61025161024c3660046119d1565b6107f3565b60405190815260200161015b565b61016c610879565b6102516102753660046118f6565b610888565b6101b76102883660046119fc565b610b62565b6101b761029b3660046119d1565b610b71565b6101b76102ae366004611ac0565b610c00565b6101b76102c13660046118af565b610c38565b61016c6102d4366004611855565b610d82565b61014f6102e7366004611b3f565b6001600160a01b03918216600090815260056020908152604080832093909416825291909152205460ff1690565b61018c610323366004611855565b6008602052600090815260409020546001600160a01b031681565b60006001600160e01b03198216632483248360e11b1480610363575061036382610e8a565b92915050565b60606000805461037890611b6d565b80601f01602080910402602001604051908101604052809291908181526020018280546103a490611b6d565b80156103f15780601f106103c6576101008083540402835291602001916103f1565b820191906000526020600020905b8154815290600101906020018083116103d457829003601f168201915b5050505050905090565b600061040682610eda565b506000908152600460205260409020546001600160a01b031690565b600061042d82610793565b9050806001600160a01b0316836001600160a01b03160361049f5760405162461bcd60e51b815260206004820152602160248201527f4552433732313a20617070726f76616c20746f2063757272656e74206f776e656044820152603960f91b60648201526084015b60405180910390fd5b336001600160a01b03821614806104bb57506104bb81336102e7565b61052d5760405162461bcd60e51b815260206004820152603d60248201527f4552433732313a20617070726f76652063616c6c6572206973206e6f7420746f60448201527f6b656e206f776e6572206f7220617070726f76656420666f7220616c6c0000006064820152608401610496565b6105378383610f3c565b505050565b6040517f19457468657265756d205369676e6564204d6573736167653a0a3332000000006020820152603c81018590526000908190605c0160408051601f1981840301815282825280516020918201206000845290830180835281905260ff8616918301919091526060820187905260808201869052915060019060a0016020604051602081039080840390855afa1580156105dc573d6000803e3d6000fd5b505050602060405103519150505b949350505050565b600954604051634b243ea360e11b81526000916001600160a01b03169081906396487d469061062990889088908890600401611cb2565b602060405180830381865afa158015610646573d6000803e3d6000fd5b505050506040513d601f19601f8201168201806040525081019061066a9190611dc1565b5060006106bf61067a8580611dde565b61068b906040810190602001611dfe565b6001600160401b031661069e8680611dde565b6106ac906020810190611dfe565b6001600160401b031660809190911b1790565b6040516303fbaf7360e01b8152600760048201526024810182905290915073f5b2d8c81cde4d6238bbf20d3d77db37df13f735906303fbaf7390604401602060405180830381865af4158015610719573d6000803e3d6000fd5b505050506040513d601f19601f8201168201806040525081019061073d9190611dc1565b9695505050505050565b6107513382610faa565b61076d5760405162461bcd60e51b815260040161049690611e19565b610537838383611028565b61053783838360405180602001604052806000815250610c00565b6000818152600260205260408120546001600160a01b0316806103635760405162461bcd60e51b8152602060048201526018602482015277115490cdcc8c4e881a5b9d985b1a59081d1bdad95b88125160421b6044820152606401610496565b60006001600160a01b03821661085d5760405162461bcd60e51b815260206004820152602960248201527f4552433732313a2061646472657373207a65726f206973206e6f7420612076616044820152683634b21037bbb732b960b91b6064820152608401610496565b506001600160a01b031660009081526003602052604090205490565b60606001805461037890611b6d565b600954604051634b243ea360e11b81526000916001600160a01b03169081906396487d46906108bf90889088908890600401611cb2565b602060405180830381865afa1580156108dc573d6000803e3d6000fd5b505050506040513d601f19601f820116820180604052508101906109009190611dc1565b50600061091061067a8580611dde565b6040516303fbaf7360e01b8152600760048201526024810182905290915073f5b2d8c81cde4d6238bbf20d3d77db37df13f735906303fbaf7390604401602060405180830381865af415801561096a573d6000803e3d6000fd5b505050506040513d601f19601f8201168201806040525081019061098e9190611dc1565b156109db5760405162461bcd60e51b815260206004820152601f60248201527f6e6f746963652072652d7375626d6974696e67206e6f7420616c6c6f776564006044820152606401610496565b600080806109eb888a018a611e91565b600a54989c50909a5098508a975050506001600160a01b03948516948616949094039350610a9592505050576000828152600860205260409020546001600160a01b0316610a7b5760405162461bcd60e51b815260206004820152601960248201527f4e6f2067616d65706c6179206f776e657220646566696e6564000000000000006044820152606401610496565b506000818152600860205260409020546001600160a01b03165b6040516306449da160e41b815260076004820152602481018690526001604482015273f5b2d8c81cde4d6238bbf20d3d77db37df13f73590636449da109060640160006040518083038186803b158015610aee57600080fd5b505af4158015610b02573d6000803e3d6000fd5b50505050610b14600b80546001019055565b6000610b1f600b5490565b9050610b2b828261118c565b610b548185604051602001610b409190611f65565b604051602081830303815290604052611317565b9a9950505050505050505050565b610b6d3383836113e2565b5050565b600a546001600160a01b03163314610bde5760405162461bcd60e51b815260206004820152602a60248201527f4f6e6c792063757272656e74206f70657261746f722063616e20736574206e656044820152693b9037b832b930ba37b960b11b6064820152608401610496565b600a80546001600160a01b0319166001600160a01b0392909216919091179055565b610c0a3383610faa565b610c265760405162461bcd60e51b815260040161049690611e19565b610c32848484846114b0565b50505050565b6040517f19457468657265756d205369676e6564204d6573736167653a0a3332000000006020820152603c8101859052600090605c0160408051601f198184030181528282528051602091820120600080855291840180845281905260ff86169284019290925260608301879052608083018690529092509060019060a0016020604051602081039080840390855afa158015610cd9573d6000803e3d6000fd5b5050604051601f190151600a549092506001600160a01b038084169116149050610d5d5760405162461bcd60e51b815260206004820152602f60248201527f53696e676e6564206d65737361676520646f6573206e6f74206d61746368206360448201526e3ab93932b73a1037b832b930ba37b960891b6064820152608401610496565b5050506000928352505060086020526040902080546001600160a01b03191633179055565b6060610d8d82610eda565b60008281526006602052604081208054610da690611b6d565b80601f0160208091040260200160405190810160405280929190818152602001828054610dd290611b6d565b8015610e1f5780601f10610df457610100808354040283529160200191610e1f565b820191906000526020600020905b815481529060010190602001808311610e0257829003601f168201915b505050505090506000610e3d60408051602081019091526000815290565b90508051600003610e4f575092915050565b815115610e81578082604051602001610e69929190611f94565b60405160208183030381529060405292505050919050565b6105ea846114e3565b60006001600160e01b031982166380ac58cd60e01b1480610ebb57506001600160e01b03198216635b5e139f60e01b145b8061036357506301ffc9a760e01b6001600160e01b0319831614610363565b6000818152600260205260409020546001600160a01b0316610f395760405162461bcd60e51b8152602060048201526018602482015277115490cdcc8c4e881a5b9d985b1a59081d1bdad95b88125160421b6044820152606401610496565b50565b600081815260046020526040902080546001600160a01b0319166001600160a01b0384169081179091558190610f7182610793565b6001600160a01b03167f8c5be1e5ebec7d5bd14f71427d1e84f3dd0314c0f7b2291e5b200ac8c7c3b92560405160405180910390a45050565b600080610fb683610793565b9050806001600160a01b0316846001600160a01b03161480610ffd57506001600160a01b0380821660009081526005602090815260408083209388168352929052205460ff165b806105ea5750836001600160a01b0316611016846103fb565b6001600160a01b031614949350505050565b826001600160a01b031661103b82610793565b6001600160a01b0316146110615760405162461bcd60e51b815260040161049690611fc3565b6001600160a01b0382166110c35760405162461bcd60e51b8152602060048201526024808201527f4552433732313a207472616e7366657220746f20746865207a65726f206164646044820152637265737360e01b6064820152608401610496565b826001600160a01b03166110d682610793565b6001600160a01b0316146110fc5760405162461bcd60e51b815260040161049690611fc3565b600081815260046020908152604080832080546001600160a01b03199081169091556001600160a01b0387811680865260038552838620805460001901905590871680865283862080546001019055868652600290945282852080549092168417909155905184937fddf252ad1be2c89b69c2b068fc378daa952ba7f163c4a11628f55a4df523b3ef91a4505050565b6001600160a01b0382166111e25760405162461bcd60e51b815260206004820181905260248201527f4552433732313a206d696e7420746f20746865207a65726f20616464726573736044820152606401610496565b6000818152600260205260409020546001600160a01b0316156112475760405162461bcd60e51b815260206004820152601c60248201527f4552433732313a20746f6b656e20616c7265616479206d696e746564000000006044820152606401610496565b6000818152600260205260409020546001600160a01b0316156112ac5760405162461bcd60e51b815260206004820152601c60248201527f4552433732313a20746f6b656e20616c7265616479206d696e746564000000006044820152606401610496565b6001600160a01b038216600081815260036020908152604080832080546001019055848352600290915280822080546001600160a01b0319168417905551839291907fddf252ad1be2c89b69c2b068fc378daa952ba7f163c4a11628f55a4df523b3ef908290a45050565b6000828152600260205260409020546001600160a01b03166113925760405162461bcd60e51b815260206004820152602e60248201527f45524337323155524953746f726167653a2055524920736574206f66206e6f6e60448201526d32bc34b9ba32b73a103a37b5b2b760911b6064820152608401610496565b60008281526006602052604090206113aa8282612056565b506040518281527ff8e1a15aba9398e019f0b49df1a4fde98ee17ae345cb5f6b5e2c27f5033e8ce79060200160405180910390a15050565b816001600160a01b0316836001600160a01b0316036114435760405162461bcd60e51b815260206004820152601960248201527f4552433732313a20617070726f766520746f2063616c6c6572000000000000006044820152606401610496565b6001600160a01b03838116600081815260056020908152604080832094871680845294825291829020805460ff191686151590811790915591519182527f17307eab39ab6107e8899845ad3d59bd9653f200f220920489ca2b5937696c31910160405180910390a3505050565b6114bb848484611028565b6114c784848484611557565b610c325760405162461bcd60e51b815260040161049690612115565b60606114ee82610eda565b600061150560408051602081019091526000815290565b905060008151116115255760405180602001604052806000815250611550565b8061152f84611655565b604051602001611540929190611f94565b6040516020818303038152906040525b9392505050565b60006001600160a01b0384163b1561164d57604051630a85bd0160e11b81526001600160a01b0385169063150b7a029061159b903390899088908890600401612167565b6020604051808303816000875af19250505080156115d6575060408051601f3d908101601f191682019092526115d39181019061219a565b60015b611633573d808015611604576040519150601f19603f3d011682016040523d82523d6000602084013e611609565b606091505b50805160000361162b5760405162461bcd60e51b815260040161049690612115565b805181602001fd5b6001600160e01b031916630a85bd0160e11b1490506105ea565b5060016105ea565b60606000611662836116e7565b60010190506000816001600160401b0381111561168157611681611a35565b6040519080825280601f01601f1916602001820160405280156116ab576020820181803683370190505b5090508181016020015b600019016f181899199a1a9b1b9c1cb0b131b232b360811b600a86061a8153600a85049450846116b557509392505050565b60008072184f03e93ff9f4daa797ed6e38ed64bf6a1f0160401b83106117265772184f03e93ff9f4daa797ed6e38ed64bf6a1f0160401b830492506040015b6d04ee2d6d415b85acef81000000008310611752576d04ee2d6d415b85acef8100000000830492506020015b662386f26fc10000831061177057662386f26fc10000830492506010015b6305f5e1008310611788576305f5e100830492506008015b612710831061179c57612710830492506004015b606483106117ae576064830492506002015b600a83106103635760010192915050565b6001600160e01b031981168114610f3957600080fd5b6000602082840312156117e757600080fd5b8135611550816117bf565b60005b8381101561180d5781810151838201526020016117f5565b50506000910152565b6000815180845261182e8160208601602086016117f2565b601f01601f19169290920160200192915050565b6020815260006115506020830184611816565b60006020828403121561186757600080fd5b5035919050565b6001600160a01b0381168114610f3957600080fd5b6000806040838503121561189657600080fd5b82356118a18161186e565b946020939093013593505050565b600080600080608085870312156118c557600080fd5b843593506020850135925060408501359150606085013560ff811681146118eb57600080fd5b939692955090935050565b60008060006040848603121561190b57600080fd5b83356001600160401b038082111561192257600080fd5b818601915086601f83011261193657600080fd5b81358181111561194557600080fd5b87602082850101111561195757600080fd5b60209283019550935090850135908082111561197257600080fd5b5084016040818703121561198557600080fd5b809150509250925092565b6000806000606084860312156119a557600080fd5b83356119b08161186e565b925060208401356119c08161186e565b929592945050506040919091013590565b6000602082840312156119e357600080fd5b81356115508161186e565b8015158114610f3957600080fd5b60008060408385031215611a0f57600080fd5b8235611a1a8161186e565b91506020830135611a2a816119ee565b809150509250929050565b634e487b7160e01b600052604160045260246000fd5b60006001600160401b0380841115611a6557611a65611a35565b604051601f8501601f19908116603f01168101908282118183101715611a8d57611a8d611a35565b81604052809350858152868686011115611aa657600080fd5b858560208301376000602087830101525050509392505050565b60008060008060808587031215611ad657600080fd5b8435611ae18161186e565b93506020850135611af18161186e565b92506040850135915060608501356001600160401b03811115611b1357600080fd5b8501601f81018713611b2457600080fd5b611b3387823560208401611a4b565b91505092959194509250565b60008060408385031215611b5257600080fd5b8235611b5d8161186e565b91506020830135611a2a8161186e565b600181811c90821680611b8157607f821691505b602082108103611ba157634e487b7160e01b600052602260045260246000fd5b50919050565b81835281816020850137506000828201602090810191909152601f909101601f19169091010190565b80356001600160401b0381168114611be757600080fd5b919050565b6000808335601e19843603018112611c0357600080fd5b83016020810192503590506001600160401b03811115611c2257600080fd5b8060051b3603821315611c3457600080fd5b9250929050565b81835260006001600160fb1b03831115611c5457600080fd5b8260051b80836020870137939093016020019392505050565b6000808335601e19843603018112611c8457600080fd5b83016020810192503590506001600160401b03811115611ca357600080fd5b803603821315611c3457600080fd5b604081526000611cc6604083018587611ba7565b8281036020840152833560fe19853603018112611ce257600080fd5b6040825284016001600160401b03611cf982611bd0565b166040830152611d0b60208201611bd0565b6001600160401b03811660608401525060408101356080830152606081013560a0830152608081013560c083015260a081013560e0830152611d5060c0820182611bec565b61010084810152611d6661014085018284611c3b565b915050611d7660e0830183611bec565b848303603f19016101208601529250611d90828483611c3b565b92505050611da16020860186611c6d565b8383036020850152611db4838284611ba7565b9998505050505050505050565b600060208284031215611dd357600080fd5b8151611550816119ee565b6000823560fe19833603018112611df457600080fd5b9190910192915050565b600060208284031215611e1057600080fd5b61155082611bd0565b6020808252602d908201527f4552433732313a2063616c6c6572206973206e6f7420746f6b656e206f776e6560408201526c1c881bdc88185c1c1c9bdd9959609a1b606082015260800190565b8035611be78161186e565b600082601f830112611e8257600080fd5b61155083833560208501611a4b565b6000806000806000806000806000806101408b8d031215611eb157600080fd5b8a359950611ec160208c01611e66565b985060408b0135975060608b0135965060808b0135955060a08b0135945060c08b01356001600160401b0380821115611ef957600080fd5b611f058e838f01611e71565b955060e08d0135915080821115611f1b57600080fd5b611f278e838f01611e71565b94506101008d0135915080821115611f3e57600080fd5b50611f4b8d828e01611e71565b9250506101208b013590509295989b9194979a5092959850565b66697066733a2f2f60c81b815260008251611f878160078501602087016117f2565b9190910160070192915050565b60008351611fa68184602088016117f2565b835190830190611fba8183602088016117f2565b01949350505050565b60208082526025908201527f4552433732313a207472616e736665722066726f6d20696e636f72726563742060408201526437bbb732b960d91b606082015260800190565b601f82111561053757600081815260208120601f850160051c8101602086101561202f5750805b601f850160051c820191505b8181101561204e5782815560010161203b565b505050505050565b81516001600160401b0381111561206f5761206f611a35565b6120838161207d8454611b6d565b84612008565b602080601f8311600181146120b857600084156120a05750858301515b600019600386901b1c1916600185901b17855561204e565b600085815260208120601f198616915b828110156120e7578886015182559484019460019091019084016120c8565b50858210156121055787850151600019600388901b60f8161c191681555b5050505050600190811b01905550565b60208082526032908201527f4552433732313a207472616e7366657220746f206e6f6e20455243373231526560408201527131b2b4bb32b91034b6b83632b6b2b73a32b960711b606082015260800190565b6001600160a01b038581168252841660208201526040810183905260806060820181905260009061073d90830184611816565b6000602082840312156121ac57600080fd5b8151611550816117bf56fea2646970667358221220f68b6ae4151ae10905de3ed149a84b87378ab6d2d79df64ca3f89dbd3397559f64736f6c63430008140033",
    "linkReferences": {}
  },
  "methodIdentifiers": {
    "approve(address,uint256)": "095ea7b3",
    "balanceOf(address)": "70a08231",
    "ckeckMinted(bytes,((uint64,uint64,bytes32,bytes32,bytes32,bytes32,bytes32[],bytes32[]),bytes))": "1926dbe0",
    "dappAddress()": "1a721b7b",
    "gamelogOwner(bytes32)": "eadc7463",
    "getApproved(uint256)": "081812fc",
    "isApprovedForAll(address,address)": "e985e9c5",
    "mint(bytes,((uint64,uint64,bytes32,bytes32,bytes32,bytes32,bytes32[],bytes32[]),bytes))": "9da52e25",
    "name()": "06fdde03",
    "operator()": "570ca735",
    "ownerOf(uint256)": "6352211e",
    "safeTransferFrom(address,address,uint256)": "42842e0e",
    "safeTransferFrom(address,address,uint256,bytes)": "b88d4fde",
    "setApprovalForAll(address,bool)": "a22cb465",
    "setGameplayOwner(bytes32,bytes32,bytes32,uint8)": "c521030a",
    "setOperator(address)": "b3ab15fb",
    "supportsInterface(bytes4)": "01ffc9a7",
    "symbol()": "95d89b41",
    "tokenURI(uint256)": "c87b56dd",
    "transferFrom(address,address,uint256)": "23b872dd",
    "verifySignature(bytes32,bytes32,bytes32,uint8)": "0d413d62"
  },
  "id": 0
}